{
  "contractName": "VehicleBuyAndSell",
  "abi": [
    {
      "inputs": [],
      "stateMutability": "nonpayable",
      "type": "constructor"
    },
    {
      "inputs": [
        {
          "internalType": "address",
          "name": "",
          "type": "address"
        }
      ],
      "name": "balances",
      "outputs": [
        {
          "internalType": "uint256",
          "name": "",
          "type": "uint256"
        }
      ],
      "stateMutability": "view",
      "type": "function",
      "constant": true
    },
    {
      "inputs": [
        {
          "internalType": "string",
          "name": "",
          "type": "string"
        }
      ],
      "name": "offers",
      "outputs": [
        {
          "internalType": "string",
          "name": "registration",
          "type": "string"
        },
        {
          "internalType": "uint256",
          "name": "value",
          "type": "uint256"
        },
        {
          "internalType": "address",
          "name": "from",
          "type": "address"
        },
        {
          "internalType": "address",
          "name": "to",
          "type": "address"
        },
        {
          "internalType": "uint256",
          "name": "status",
          "type": "uint256"
        },
        {
          "internalType": "uint256",
          "name": "createdAt",
          "type": "uint256"
        }
      ],
      "stateMutability": "view",
      "type": "function",
      "constant": true
    },
    {
      "inputs": [
        {
          "internalType": "string",
          "name": "",
          "type": "string"
        }
      ],
      "name": "registrationsMapping",
      "outputs": [
        {
          "internalType": "string",
          "name": "registration",
          "type": "string"
        },
        {
          "internalType": "address",
          "name": "owner",
          "type": "address"
        }
      ],
      "stateMutability": "view",
      "type": "function",
      "constant": true
    },
    {
      "inputs": [
        {
          "internalType": "string",
          "name": "_registration",
          "type": "string"
        }
      ],
      "name": "saveRegistration",
      "outputs": [],
      "stateMutability": "nonpayable",
      "type": "function"
    },
    {
      "inputs": [
        {
          "internalType": "string",
          "name": "_registration",
          "type": "string"
        },
        {
          "internalType": "address",
          "name": "_newOwner",
          "type": "address"
        }
      ],
      "name": "acceptOffer",
      "outputs": [],
      "stateMutability": "nonpayable",
      "type": "function"
    },
    {
      "inputs": [
        {
          "internalType": "address",
          "name": "_to",
          "type": "address"
        },
        {
          "internalType": "string",
          "name": "_registration",
          "type": "string"
        }
      ],
      "name": "createOffer",
      "outputs": [],
      "stateMutability": "payable",
      "type": "function",
      "payable": true
    },
    {
      "inputs": [
        {
          "internalType": "string",
          "name": "_registration",
          "type": "string"
        }
      ],
      "name": "cancelOffer",
      "outputs": [],
      "stateMutability": "payable",
      "type": "function",
      "payable": true
    },
    {
      "inputs": [
        {
          "internalType": "string",
          "name": "_registration",
          "type": "string"
        }
      ],
      "name": "getOffer",
      "outputs": [
        {
          "components": [
            {
              "internalType": "string",
              "name": "registration",
              "type": "string"
            },
            {
              "internalType": "uint256",
              "name": "value",
              "type": "uint256"
            },
            {
              "internalType": "address",
              "name": "from",
              "type": "address"
            },
            {
              "internalType": "address",
              "name": "to",
              "type": "address"
            },
            {
              "internalType": "uint256",
              "name": "status",
              "type": "uint256"
            },
            {
              "internalType": "uint256",
              "name": "createdAt",
              "type": "uint256"
            }
          ],
          "internalType": "struct VehicleBuyAndSell.Offer",
          "name": "",
          "type": "tuple"
        }
      ],
      "stateMutability": "view",
      "type": "function",
      "constant": true
    },
    {
      "inputs": [
        {
          "internalType": "string",
          "name": "_registration",
          "type": "string"
        }
      ],
      "name": "getOwner",
      "outputs": [
        {
          "internalType": "address",
          "name": "",
          "type": "address"
        }
      ],
      "stateMutability": "view",
      "type": "function",
      "constant": true
    },
    {
      "inputs": [],
      "name": "getMyBalance",
      "outputs": [
        {
          "internalType": "uint256",
          "name": "",
          "type": "uint256"
        }
      ],
      "stateMutability": "view",
      "type": "function",
      "constant": true
    },
    {
      "inputs": [],
      "name": "getContractBalance",
      "outputs": [
        {
          "internalType": "uint256",
          "name": "",
          "type": "uint256"
        }
      ],
      "stateMutability": "view",
      "type": "function",
      "constant": true
    }
  ],
  "bytecode": "0x60806040523480156200001157600080fd5b5060405180604001604052806040518060400160405280600781526020017f414141313233340000000000000000000000000000000000000000000000000081525081526020017392da7b05c3e60d95ab499f725db12293a00b4b5a73ffffffffffffffffffffffffffffffffffffffff168152506002604051620000969062000414565b90815260200160405180910390206000820151816000019080519060200190620000c292919062000309565b5060208201518160010160006101000a81548173ffffffffffffffffffffffffffffffffffffffff021916908373ffffffffffffffffffffffffffffffffffffffff16021790555090505060405180604001604052806040518060400160405280600781526020017f424242313233340000000000000000000000000000000000000000000000000081525081526020017373200395b30475d32fa6b83c304a0dae998a67a673ffffffffffffffffffffffffffffffffffffffff16815250600260405162000191906200047b565b90815260200160405180910390206000820151816000019080519060200190620001bd92919062000309565b5060208201518160010160006101000a81548173ffffffffffffffffffffffffffffffffffffffff021916908373ffffffffffffffffffffffffffffffffffffffff16021790555090505060405180604001604052806040518060400160405280600781526020017f434343393939390000000000000000000000000000000000000000000000000081525081526020017327ba6159f7bd347a934d31649e17cb10ebd557b473ffffffffffffffffffffffffffffffffffffffff1681525060026040516200028c90620004e2565b90815260200160405180910390206000820151816000019080519060200190620002b892919062000309565b5060208201518160010160006101000a81548173ffffffffffffffffffffffffffffffffffffffff021916908373ffffffffffffffffffffffffffffffffffffffff1602179055509050506200055e565b828054620003179062000528565b90600052602060002090601f0160209004810192826200033b576000855562000387565b82601f106200035657805160ff191683800117855562000387565b8280016001018555821562000387579182015b828111156200038657825182559160200191906001019062000369565b5b5090506200039691906200039a565b5090565b5b80821115620003b55760008160009055506001016200039b565b5090565b600081905092915050565b7f4141413132333400000000000000000000000000000000000000000000000000600082015250565b6000620003fc600783620003b9565b91506200040982620003c4565b600782019050919050565b60006200042182620003ed565b9150819050919050565b7f4242423132333400000000000000000000000000000000000000000000000000600082015250565b600062000463600783620003b9565b915062000470826200042b565b600782019050919050565b6000620004888262000454565b9150819050919050565b7f4343433939393900000000000000000000000000000000000000000000000000600082015250565b6000620004ca600783620003b9565b9150620004d78262000492565b600782019050919050565b6000620004ef82620004bb565b9150819050919050565b7f4e487b7100000000000000000000000000000000000000000000000000000000600052602260045260246000fd5b600060028204905060018216806200054157607f821691505b60208210811415620005585762000557620004f9565b5b50919050565b611bc9806200056e6000396000f3fe60806040526004361061009c5760003560e01c80636f9fb98a116100645780636f9fb98a1461018b5780637a510116146101b657806384328e20146101f3578063d5fd37761461021c578063e41abedf1461025e578063f3a537621461029c5761009c565b80630ed39e91146100a157806327e235e3146100ca5780632d63ce27146101075780634aaf4a12146101235780634c73890914610160575b600080fd5b3480156100ad57600080fd5b506100c860048036038101906100c3919061128b565b6102b8565b005b3480156100d657600080fd5b506100f160048036038101906100ec9190611332565b610472565b6040516100fe9190611378565b60405180910390f35b610121600480360381019061011c919061128b565b61048a565b005b34801561012f57600080fd5b5061014a6004803603810190610145919061128b565b610651565b60405161015791906113a2565b60405180910390f35b34801561016c57600080fd5b5061017561069c565b6040516101829190611378565b60405180910390f35b34801561019757600080fd5b506101a06106e2565b6040516101ad9190611378565b60405180910390f35b3480156101c257600080fd5b506101dd60048036038101906101d8919061128b565b6106ea565b6040516101ea91906114ec565b60405180910390f35b3480156101ff57600080fd5b5061021a6004803603810190610215919061150e565b61087e565b005b34801561022857600080fd5b50610243600480360381019061023e919061128b565b610b08565b604051610255969594939291906115b4565b60405180910390f35b34801561026a57600080fd5b506102856004803603810190610280919061128b565b610c22565b60405161029392919061161c565b60405180910390f35b6102b660048036038101906102b1919061164c565b610d04565b005b600061037c6002836040516102cd91906116e4565b908152602001604051809103902060000180546102e99061172a565b80601f01602080910402602001604051908101604052809291908181526020018280546103159061172a565b80156103625780601f1061033757610100808354040283529160200191610362565b820191906000526020600020905b81548152906001019060200180831161034557829003601f168201915b505050505060405180602001604052806000815250610fd3565b9050806103be576040517f08c379a00000000000000000000000000000000000000000000000000000000081526004016103b5906117ce565b60405180910390fd5b60405180604001604052808381526020013373ffffffffffffffffffffffffffffffffffffffff168152506002836040516103f991906116e4565b9081526020016040518091039020600082015181600001908051906020019061042392919061102c565b5060208201518160010160006101000a81548173ffffffffffffffffffffffffffffffffffffffff021916908373ffffffffffffffffffffffffffffffffffffffff1602179055509050505050565b60006020528060005260406000206000915090505481565b6001808260405161049b91906116e4565b908152602001604051809103902060040154146104ed576040517f08c379a00000000000000000000000000000000000000000000000000000000081526004016104e490611860565b60405180910390fd5b3373ffffffffffffffffffffffffffffffffffffffff1660018260405161051491906116e4565b908152602001604051809103902060020160009054906101000a900473ffffffffffffffffffffffffffffffffffffffff1673ffffffffffffffffffffffffffffffffffffffff161461059c576040517f08c379a0000000000000000000000000000000000000000000000000000000008152600401610593906118cc565b60405180910390fd5b60026001826040516105ae91906116e4565b9081526020016040518091039020600401819055503373ffffffffffffffffffffffffffffffffffffffff166108fc479081150290604051600060405180830381858888f19350505050158015610609573d6000803e3d6000fd5b5060008060003373ffffffffffffffffffffffffffffffffffffffff1673ffffffffffffffffffffffffffffffffffffffff1681526020019081526020016000208190555050565b600060028260405161066391906116e4565b908152602001604051809103902060010160009054906101000a900473ffffffffffffffffffffffffffffffffffffffff169050919050565b60008060003373ffffffffffffffffffffffffffffffffffffffff1673ffffffffffffffffffffffffffffffffffffffff16815260200190815260200160002054905090565b600047905090565b6106f26110b2565b60018260405161070291906116e4565b90815260200160405180910390206040518060c001604052908160008201805461072b9061172a565b80601f01602080910402602001604051908101604052809291908181526020018280546107579061172a565b80156107a45780601f10610779576101008083540402835291602001916107a4565b820191906000526020600020905b81548152906001019060200180831161078757829003601f168201915b50505050508152602001600182015481526020016002820160009054906101000a900473ffffffffffffffffffffffffffffffffffffffff1673ffffffffffffffffffffffffffffffffffffffff1673ffffffffffffffffffffffffffffffffffffffff1681526020016003820160009054906101000a900473ffffffffffffffffffffffffffffffffffffffff1673ffffffffffffffffffffffffffffffffffffffff1673ffffffffffffffffffffffffffffffffffffffff168152602001600482015481526020016005820154815250509050919050565b3373ffffffffffffffffffffffffffffffffffffffff166002836040516108a591906116e4565b908152602001604051809103902060010160009054906101000a900473ffffffffffffffffffffffffffffffffffffffff1673ffffffffffffffffffffffffffffffffffffffff161461092d576040517f08c379a00000000000000000000000000000000000000000000000000000000081526004016109249061195e565b60405180910390fd5b60006001808460405161094091906116e4565b90815260200160405180910390206004015414905080610995576040517f08c379a000000000000000000000000000000000000000000000000000000000815260040161098c906119ca565b60405180910390fd5b6000808373ffffffffffffffffffffffffffffffffffffffff1673ffffffffffffffffffffffffffffffffffffffff168152602001908152602001600020546000803373ffffffffffffffffffffffffffffffffffffffff1673ffffffffffffffffffffffffffffffffffffffff16815260200190815260200160002054610a1d9190611a19565b6000803373ffffffffffffffffffffffffffffffffffffffff1673ffffffffffffffffffffffffffffffffffffffff1681526020019081526020016000208190555060008060008473ffffffffffffffffffffffffffffffffffffffff1673ffffffffffffffffffffffffffffffffffffffff1681526020019081526020016000208190555081600284604051610ab491906116e4565b908152602001604051809103902060010160006101000a81548173ffffffffffffffffffffffffffffffffffffffff021916908373ffffffffffffffffffffffffffffffffffffffff160217905550505050565b600181805160208101820180518482526020830160208501208183528095505050505050600091509050806000018054610b419061172a565b80601f0160208091040260200160405190810160405280929190818152602001828054610b6d9061172a565b8015610bba5780601f10610b8f57610100808354040283529160200191610bba565b820191906000526020600020905b815481529060010190602001808311610b9d57829003601f168201915b5050505050908060010154908060020160009054906101000a900473ffffffffffffffffffffffffffffffffffffffff16908060030160009054906101000a900473ffffffffffffffffffffffffffffffffffffffff16908060040154908060050154905086565b600281805160208101820180518482526020830160208501208183528095505050505050600091509050806000018054610c5b9061172a565b80601f0160208091040260200160405190810160405280929190818152602001828054610c879061172a565b8015610cd45780601f10610ca957610100808354040283529160200191610cd4565b820191906000526020600020905b815481529060010190602001808311610cb757829003601f168201915b5050505050908060010160009054906101000a900473ffffffffffffffffffffffffffffffffffffffff16905082565b8173ffffffffffffffffffffffffffffffffffffffff16600282604051610d2b91906116e4565b908152602001604051809103902060010160009054906101000a900473ffffffffffffffffffffffffffffffffffffffff1673ffffffffffffffffffffffffffffffffffffffff1614610db3576040517f08c379a0000000000000000000000000000000000000000000000000000000008152600401610daa90611ae1565b60405180910390fd5b600080600183604051610dc691906116e4565b9081526020016040518091039020600401541480610e0557506002600183604051610df191906116e4565b908152602001604051809103902060040154145b905080610e47576040517f08c379a0000000000000000000000000000000000000000000000000000000008152600401610e3e90611b73565b60405180910390fd5b346000803373ffffffffffffffffffffffffffffffffffffffff1673ffffffffffffffffffffffffffffffffffffffff168152602001908152602001600020819055506040518060c001604052808381526020013481526020013373ffffffffffffffffffffffffffffffffffffffff1681526020018473ffffffffffffffffffffffffffffffffffffffff1681526020016001815260200142815250600183604051610ef491906116e4565b90815260200160405180910390206000820151816000019080519060200190610f1e92919061102c565b506020820151816001015560408201518160020160006101000a81548173ffffffffffffffffffffffffffffffffffffffff021916908373ffffffffffffffffffffffffffffffffffffffff16021790555060608201518160030160006101000a81548173ffffffffffffffffffffffffffffffffffffffff021916908373ffffffffffffffffffffffffffffffffffffffff1602179055506080820151816004015560a08201518160050155905050505050565b600081604051602001610fe691906116e4565b604051602081830303815290604052805190602001208360405160200161100d91906116e4565b6040516020818303038152906040528051906020012014905092915050565b8280546110389061172a565b90600052602060002090601f01602090048101928261105a57600085556110a1565b82601f1061107357805160ff19168380011785556110a1565b828001600101855582156110a1579182015b828111156110a0578251825591602001919060010190611085565b5b5090506110ae9190611114565b5090565b6040518060c001604052806060815260200160008152602001600073ffffffffffffffffffffffffffffffffffffffff168152602001600073ffffffffffffffffffffffffffffffffffffffff16815260200160008152602001600081525090565b5b8082111561112d576000816000905550600101611115565b5090565b6000604051905090565b600080fd5b600080fd5b600080fd5b600080fd5b6000601f19601f8301169050919050565b7f4e487b7100000000000000000000000000000000000000000000000000000000600052604160045260246000fd5b6111988261114f565b810181811067ffffffffffffffff821117156111b7576111b6611160565b5b80604052505050565b60006111ca611131565b90506111d6828261118f565b919050565b600067ffffffffffffffff8211156111f6576111f5611160565b5b6111ff8261114f565b9050602081019050919050565b82818337600083830152505050565b600061122e611229846111db565b6111c0565b90508281526020810184848401111561124a5761124961114a565b5b61125584828561120c565b509392505050565b600082601f83011261127257611271611145565b5b813561128284826020860161121b565b91505092915050565b6000602082840312156112a1576112a061113b565b5b600082013567ffffffffffffffff8111156112bf576112be611140565b5b6112cb8482850161125d565b91505092915050565b600073ffffffffffffffffffffffffffffffffffffffff82169050919050565b60006112ff826112d4565b9050919050565b61130f816112f4565b811461131a57600080fd5b50565b60008135905061132c81611306565b92915050565b6000602082840312156113485761134761113b565b5b60006113568482850161131d565b91505092915050565b6000819050919050565b6113728161135f565b82525050565b600060208201905061138d6000830184611369565b92915050565b61139c816112f4565b82525050565b60006020820190506113b76000830184611393565b92915050565b600081519050919050565b600082825260208201905092915050565b60005b838110156113f75780820151818401526020810190506113dc565b83811115611406576000848401525b50505050565b6000611417826113bd565b61142181856113c8565b93506114318185602086016113d9565b61143a8161114f565b840191505092915050565b61144e8161135f565b82525050565b61145d816112f4565b82525050565b600060c0830160008301518482036000860152611480828261140c565b91505060208301516114956020860182611445565b5060408301516114a86040860182611454565b5060608301516114bb6060860182611454565b5060808301516114ce6080860182611445565b5060a08301516114e160a0860182611445565b508091505092915050565b600060208201905081810360008301526115068184611463565b905092915050565b600080604083850312156115255761152461113b565b5b600083013567ffffffffffffffff81111561154357611542611140565b5b61154f8582860161125d565b92505060206115608582860161131d565b9150509250929050565b600082825260208201905092915050565b6000611586826113bd565b611590818561156a565b93506115a08185602086016113d9565b6115a98161114f565b840191505092915050565b600060c08201905081810360008301526115ce818961157b565b90506115dd6020830188611369565b6115ea6040830187611393565b6115f76060830186611393565b6116046080830185611369565b61161160a0830184611369565b979650505050505050565b60006040820190508181036000830152611636818561157b565b90506116456020830184611393565b9392505050565b600080604083850312156116635761166261113b565b5b60006116718582860161131d565b925050602083013567ffffffffffffffff81111561169257611691611140565b5b61169e8582860161125d565b9150509250929050565b600081905092915050565b60006116be826113bd565b6116c881856116a8565b93506116d88185602086016113d9565b80840191505092915050565b60006116f082846116b3565b915081905092915050565b7f4e487b7100000000000000000000000000000000000000000000000000000000600052602260045260246000fd5b6000600282049050600182168061174257607f821691505b60208210811415611756576117556116fb565b5b50919050565b7f74686520726567697374726174696f6e20697320616c72656164792073746f7260008201527f6564000000000000000000000000000000000000000000000000000000000000602082015250565b60006117b860228361156a565b91506117c38261175c565b604082019050919050565b600060208201905081810360008301526117e7816117ab565b9050919050565b7f796f752063616e206f6e6c792063616e63656c20616e20616374697665206f6660008201527f6665720000000000000000000000000000000000000000000000000000000000602082015250565b600061184a60238361156a565b9150611855826117ee565b604082019050919050565b600060208201905081810360008301526118798161183d565b9050919050565b7f796f75206f6e6c792063616e2063616e63656c20796f7572206f666665720000600082015250565b60006118b6601e8361156a565b91506118c182611880565b602082019050919050565b600060208201905081810360008301526118e5816118a9565b9050919050565b7f6f6e6c7920746865206f776e65722063616e206163636570742061207265676960008201527f7374726174696f6e000000000000000000000000000000000000000000000000602082015250565b600061194860288361156a565b9150611953826118ec565b604082019050919050565b600060208201905081810360008301526119778161193b565b9050919050565b7f796f75206861766520616e20696e616374697665206f66666572000000000000600082015250565b60006119b4601a8361156a565b91506119bf8261197e565b602082019050919050565b600060208201905081810360008301526119e3816119a7565b9050919050565b7f4e487b7100000000000000000000000000000000000000000000000000000000600052601160045260246000fd5b6000611a248261135f565b9150611a2f8361135f565b9250827fffffffffffffffffffffffffffffffffffffffffffffffffffffffffffffffff03821115611a6457611a636119ea565b5b828201905092915050565b7f796f752063616e206f6e6c792073656e64206f6666657220746f20746865206f60008201527f776e657200000000000000000000000000000000000000000000000000000000602082015250565b6000611acb60248361156a565b9150611ad682611a6f565b604082019050919050565b60006020820190508181036000830152611afa81611abe565b9050919050565b7f796f75206861766520616c726561647920616e206f666665722061637469766560008201527f2c2063616e63656c206974206669727374000000000000000000000000000000602082015250565b6000611b5d60318361156a565b9150611b6882611b01565b604082019050919050565b60006020820190508181036000830152611b8c81611b50565b905091905056fea2646970667358221220fc4c228ef4a2168f9cdd724193e2bb79d4373767c81cbc53efcbc5c7325fa8ae64736f6c63430008090033",
  "immutableReferences": {},
  "source": "// SPDX-License-Identifier: MIT\npragma solidity >=0.4.22 <0.9.0;\n\ncontract VehicleBuyAndSell {\n\n    struct Registration {\n        string registration;\n        address owner;\n    }\n\n    struct Offer {\n        string registration;\n        uint256 value;\n        address from;\n        address to;\n        uint256 status;\n        uint256 createdAt;\n    }\n\n    mapping(address => uint256) public balances;\n    mapping(string => Offer) public offers;\n    mapping(string => Registration) public registrationsMapping;\n\n    constructor() {\n        registrationsMapping[\"AAA1234\"] = Registration(\"AAA1234\", 0x92DA7b05c3E60d95Ab499F725DB12293a00b4b5A);\n        registrationsMapping[\"BBB1234\"] = Registration(\"BBB1234\", 0x73200395B30475D32Fa6B83c304a0daE998A67A6);\n        registrationsMapping[\"CCC9999\"] = Registration(\"CCC9999\", 0x27bA6159f7Bd347a934D31649e17CB10EbD557B4);\n    }\n\n    function compareStrings(string memory a, string memory b) internal pure returns (bool) {\n        return (keccak256(abi.encodePacked((a))) == keccak256(abi.encodePacked((b))));\n    }\n\n    function saveRegistration(string memory _registration) public {\n        bool canStore = compareStrings(registrationsMapping[_registration].registration, \"\");\n        require(canStore, \"the registration is already stored\");\n        registrationsMapping[_registration] = Registration(_registration, msg.sender);\n    }\n\n    function acceptOffer(string memory _registration, address _newOwner) public {\n        require(registrationsMapping[_registration].owner == msg.sender, \"only the owner can accept a registration\");\n\n        bool canAcceptAnOffer = offers[_registration].status == 1;\n        require(canAcceptAnOffer, \"you have an inactive offer\");\n\n        balances[msg.sender] = balances[msg.sender] + balances[_newOwner];\n        balances[_newOwner] = 0;\n\n        registrationsMapping[_registration].owner = _newOwner;\n    }\n\n    function createOffer(address _to, string memory _registration) public payable {\n        require(registrationsMapping[_registration].owner == _to, \"you can only send offer to the owner\");\n\n        bool canCreateAnOffer = offers[_registration].status == 0 || offers[_registration].status == 2;\n        require(canCreateAnOffer, \"you have already an offer active, cancel it first\");\n\n        balances[msg.sender] = msg.value;\n        offers[_registration] = Offer(_registration,  msg.value, msg.sender, _to, 1, block.timestamp);\n    }\n\n    function cancelOffer(string memory _registration) payable public {\n        require(offers[_registration].status == 1, \"you can only cancel an active offer\");\n        require(offers[_registration].from == msg.sender, \"you only can cancel your offer\");\n\n        offers[_registration].status = 2;\n        payable(msg.sender).transfer(address(this).balance);\n        balances[msg.sender] = 0;\n    }\n\n    function getOffer(string memory _registration) public view returns (Offer memory){\n        return offers[_registration];\n    }\n\n    function getOwner(string memory _registration) public view returns (address){\n        return registrationsMapping[_registration].owner;\n    }\n\n    function getMyBalance() public view returns (uint256){\n        return balances[msg.sender];\n    }\n\n    function getContractBalance() public view returns (uint256){\n        return address(this).balance;\n    }\n}",
  "sourcePath": "/Users/marcusmota/Workspace/my-dapp/contracts/VehicleBuyAndSell.sol",
  "compiler": {
    "name": "solc",
    "version": "0.8.9+commit.e5eed63a.Emscripten.clang"
  },
  "schemaVersion": "3.4.3",
  "updatedAt": "2021-10-25T21:57:54.127Z",
  "networkType": "ethereum",
  "devdoc": {
    "kind": "dev",
    "methods": {},
    "version": 1
  },
  "userdoc": {
    "kind": "user",
    "methods": {},
    "version": 1
  }
}